{
  "contractName": "MultiSigWallet",
  "abi": [
    {
      "inputs": [
        {
          "internalType": "address[]",
          "name": "_owners",
          "type": "address[]"
        },
        {
          "internalType": "uint256",
          "name": "_numConfirmationRequired",
          "type": "uint256"
        }
      ],
      "stateMutability": "payable",
      "type": "constructor",
      "payable": true
    },
    {
      "anonymous": false,
      "inputs": [
        {
          "indexed": true,
          "internalType": "address",
          "name": "owner",
          "type": "address"
        },
        {
          "indexed": true,
          "internalType": "uint256",
          "name": "txIndex",
          "type": "uint256"
        }
      ],
      "name": "ConfirmTransaction",
      "type": "event"
    },
    {
      "anonymous": false,
      "inputs": [
        {
          "indexed": true,
          "internalType": "address",
          "name": "sender",
          "type": "address"
        },
        {
          "indexed": false,
          "internalType": "uint256",
          "name": "amount",
          "type": "uint256"
        },
        {
          "indexed": false,
          "internalType": "uint256",
          "name": "balance",
          "type": "uint256"
        }
      ],
      "name": "Deposit",
      "type": "event"
    },
    {
      "anonymous": false,
      "inputs": [
        {
          "indexed": true,
          "internalType": "address",
          "name": "owner",
          "type": "address"
        },
        {
          "indexed": true,
          "internalType": "uint256",
          "name": "txIndex",
          "type": "uint256"
        }
      ],
      "name": "ExecuteTransaction",
      "type": "event"
    },
    {
      "anonymous": false,
      "inputs": [
        {
          "indexed": true,
          "internalType": "address",
          "name": "owner",
          "type": "address"
        },
        {
          "indexed": true,
          "internalType": "uint256",
          "name": "txIndex",
          "type": "uint256"
        }
      ],
      "name": "RevokeConfirmation",
      "type": "event"
    },
    {
      "anonymous": false,
      "inputs": [
        {
          "indexed": true,
          "internalType": "address",
          "name": "owner",
          "type": "address"
        },
        {
          "indexed": true,
          "internalType": "uint256",
          "name": "txIndex",
          "type": "uint256"
        },
        {
          "indexed": true,
          "internalType": "address",
          "name": "to",
          "type": "address"
        },
        {
          "indexed": false,
          "internalType": "uint256",
          "name": "value",
          "type": "uint256"
        },
        {
          "indexed": false,
          "internalType": "bytes",
          "name": "data",
          "type": "bytes"
        }
      ],
      "name": "SubmitTransaction",
      "type": "event"
    },
    {
      "inputs": [
        {
          "internalType": "uint256",
          "name": "",
          "type": "uint256"
        },
        {
          "internalType": "address",
          "name": "",
          "type": "address"
        }
      ],
      "name": "isConfirmed",
      "outputs": [
        {
          "internalType": "bool",
          "name": "",
          "type": "bool"
        }
      ],
      "stateMutability": "view",
      "type": "function",
      "constant": true
    },
    {
      "inputs": [
        {
          "internalType": "address",
          "name": "",
          "type": "address"
        }
      ],
      "name": "isOwner",
      "outputs": [
        {
          "internalType": "bool",
          "name": "",
          "type": "bool"
        }
      ],
      "stateMutability": "view",
      "type": "function",
      "constant": true
    },
    {
      "inputs": [],
      "name": "numConfirmationRequired",
      "outputs": [
        {
          "internalType": "uint256",
          "name": "",
          "type": "uint256"
        }
      ],
      "stateMutability": "view",
      "type": "function",
      "constant": true
    },
    {
      "inputs": [
        {
          "internalType": "uint256",
          "name": "",
          "type": "uint256"
        }
      ],
      "name": "owners",
      "outputs": [
        {
          "internalType": "address",
          "name": "",
          "type": "address"
        }
      ],
      "stateMutability": "view",
      "type": "function",
      "constant": true
    },
    {
      "inputs": [
        {
          "internalType": "uint256",
          "name": "",
          "type": "uint256"
        }
      ],
      "name": "transactions",
      "outputs": [
        {
          "internalType": "address payable",
          "name": "to",
          "type": "address"
        },
        {
          "internalType": "uint256",
          "name": "value",
          "type": "uint256"
        },
        {
          "internalType": "bytes",
          "name": "data",
          "type": "bytes"
        },
        {
          "internalType": "bool",
          "name": "executed",
          "type": "bool"
        },
        {
          "internalType": "uint256",
          "name": "numConfirmations",
          "type": "uint256"
        }
      ],
      "stateMutability": "view",
      "type": "function",
      "constant": true
    },
    {
      "inputs": [
        {
          "internalType": "address payable",
          "name": "_to",
          "type": "address"
        },
        {
          "internalType": "uint256",
          "name": "_value",
          "type": "uint256"
        },
        {
          "internalType": "bytes",
          "name": "_data",
          "type": "bytes"
        }
      ],
      "name": "submitTransaction",
      "outputs": [],
      "stateMutability": "nonpayable",
      "type": "function"
    },
    {
      "inputs": [
        {
          "internalType": "uint256",
          "name": "_txIndex",
          "type": "uint256"
        }
      ],
      "name": "confirmTransaction",
      "outputs": [],
      "stateMutability": "nonpayable",
      "type": "function"
    },
    {
      "inputs": [
        {
          "internalType": "uint256",
          "name": "_txIndex",
          "type": "uint256"
        }
      ],
      "name": "executeTransaction",
      "outputs": [],
      "stateMutability": "nonpayable",
      "type": "function"
    },
    {
      "inputs": [
        {
          "internalType": "uint256",
          "name": "_txIndex",
          "type": "uint256"
        }
      ],
      "name": "revokeTransaction",
      "outputs": [],
      "stateMutability": "nonpayable",
      "type": "function"
    },
    {
      "inputs": [
        {
          "internalType": "uint256",
          "name": "_txIndex",
          "type": "uint256"
        }
      ],
      "name": "getTransaction",
      "outputs": [
        {
          "internalType": "address",
          "name": "to",
          "type": "address"
        },
        {
          "internalType": "uint256",
          "name": "value",
          "type": "uint256"
        },
        {
          "internalType": "bytes",
          "name": "data",
          "type": "bytes"
        },
        {
          "internalType": "bool",
          "name": "executed",
          "type": "bool"
        },
        {
          "internalType": "uint256",
          "name": "numConfirmations",
          "type": "uint256"
        }
      ],
      "stateMutability": "view",
      "type": "function",
      "constant": true
    },
    {
      "inputs": [],
      "name": "getOwners",
      "outputs": [
        {
          "internalType": "address[]",
          "name": "",
          "type": "address[]"
        }
      ],
      "stateMutability": "view",
      "type": "function",
      "constant": true
    },
    {
      "inputs": [],
      "name": "getTransactionCount",
      "outputs": [
        {
          "internalType": "uint256",
          "name": "",
          "type": "uint256"
        }
      ],
      "stateMutability": "view",
      "type": "function",
      "constant": true
    }
  ],
  "bytecode": "0x6080604052604051620024ae380380620024ae8339818101604052810190620000299190620004dd565b5f8251116200006f576040517f08c379a000000000000000000000000000000000000000000000000000000000815260040162000066906200059f565b60405180910390fd5b5f8111801562000080575081518111155b620000c2576040517f08c379a0000000000000000000000000000000000000000000000000000000008152600401620000b99062000633565b60405180910390fd5b5f5b8251811015620002b7575f838281518110620000e557620000e462000653565b5b602002602001015190505f73ffffffffffffffffffffffffffffffffffffffff168173ffffffffffffffffffffffffffffffffffffffff160362000160576040517f08c379a00000000000000000000000000000000000000000000000000000000081526004016200015790620006ce565b60405180910390fd5b60015f8273ffffffffffffffffffffffffffffffffffffffff1673ffffffffffffffffffffffffffffffffffffffff1681526020019081526020015f205f9054906101000a900460ff1615620001ed576040517f08c379a0000000000000000000000000000000000000000000000000000000008152600401620001e4906200073c565b60405180910390fd5b6001805f8373ffffffffffffffffffffffffffffffffffffffff1673ffffffffffffffffffffffffffffffffffffffff1681526020019081526020015f205f6101000a81548160ff0219169083151502179055505f81908060018154018082558091505060019003905f5260205f20015f9091909190916101000a81548173ffffffffffffffffffffffffffffffffffffffff021916908373ffffffffffffffffffffffffffffffffffffffff160217905550508080620002ae9062000789565b915050620000c4565b50806002819055505050620007d5565b5f604051905090565b5f80fd5b5f80fd5b5f80fd5b5f601f19601f8301169050919050565b7f4e487b71000000000000000000000000000000000000000000000000000000005f52604160045260245ffd5b6200032482620002dc565b810181811067ffffffffffffffff82111715620003465762000345620002ec565b5b80604052505050565b5f6200035a620002c7565b905062000368828262000319565b919050565b5f67ffffffffffffffff8211156200038a5762000389620002ec565b5b602082029050602081019050919050565b5f80fd5b5f73ffffffffffffffffffffffffffffffffffffffff82169050919050565b5f620003ca826200039f565b9050919050565b620003dc81620003be565b8114620003e7575f80fd5b50565b5f81519050620003fa81620003d1565b92915050565b5f6200041662000410846200036d565b6200034f565b905080838252602082019050602084028301858111156200043c576200043b6200039b565b5b835b81811015620004695780620004548882620003ea565b8452602084019350506020810190506200043e565b5050509392505050565b5f82601f8301126200048a5762000489620002d8565b5b81516200049c84826020860162000400565b91505092915050565b5f819050919050565b620004b981620004a5565b8114620004c4575f80fd5b50565b5f81519050620004d781620004ae565b92915050565b5f8060408385031215620004f657620004f5620002d0565b5b5f83015167ffffffffffffffff811115620005165762000515620002d4565b5b620005248582860162000473565b92505060206200053785828601620004c7565b9150509250929050565b5f82825260208201905092915050565b7f6f776e65727320726571756972656400000000000000000000000000000000005f82015250565b5f62000587600f8362000541565b9150620005948262000551565b602082019050919050565b5f6020820190508181035f830152620005b88162000579565b9050919050565b7f696e76616c6964206e756d626572206f6620726571756972656420636f6e66695f8201527f726d6174696f6e73000000000000000000000000000000000000000000000000602082015250565b5f6200061b60288362000541565b91506200062882620005bf565b604082019050919050565b5f6020820190508181035f8301526200064c816200060d565b9050919050565b7f4e487b71000000000000000000000000000000000000000000000000000000005f52603260045260245ffd5b7f696e76616c6964206f776e6572000000000000000000000000000000000000005f82015250565b5f620006b6600d8362000541565b9150620006c38262000680565b602082019050919050565b5f6020820190508181035f830152620006e781620006a8565b9050919050565b7f6f776e6572206e6f7420756e69717565000000000000000000000000000000005f82015250565b5f6200072460108362000541565b91506200073182620006ee565b602082019050919050565b5f6020820190508181035f830152620007558162000716565b9050919050565b7f4e487b71000000000000000000000000000000000000000000000000000000005f52601160045260245ffd5b5f6200079582620004a5565b91507fffffffffffffffffffffffffffffffffffffffffffffffffffffffffffffffff8203620007ca57620007c96200075c565b5b600182019050919050565b611ccb80620007e35f395ff3fe608060405234801561000f575f80fd5b50600436106100b2575f3560e01c80639ace38c21161006f5780639ace38c2146101b45780639b6a34d3146101e8578063a0e67e2b14610206578063c01a8c8414610224578063c642747414610240578063ee22610b1461025c576100b2565b8063025e7c27146100b65780632e7700f0146100e65780632f54bf6e1461010457806333ea3dc814610134578063735631ad1461016857806380f59a6514610184575b5f80fd5b6100d060048036038101906100cb919061106c565b610278565b6040516100dd91906110d6565b60405180910390f35b6100ee6102b2565b6040516100fb91906110fe565b60405180910390f35b61011e60048036038101906101199190611141565b6102be565b60405161012b9190611186565b60405180910390f35b61014e6004803603810190610149919061106c565b6102db565b60405161015f959493929190611229565b60405180910390f35b610182600480360381019061017d919061106c565b6103e1565b005b61019e60048036038101906101999190611281565b6106a6565b6040516101ab9190611186565b60405180910390f35b6101ce60048036038101906101c9919061106c565b6106d0565b6040516101df9594939291906112df565b60405180910390f35b6101f06107c2565b6040516101fd91906110fe565b60405180910390f35b61020e6107c8565b60405161021b91906113ee565b60405180910390f35b61023e6004803603810190610239919061106c565b610852565b005b61025a60048036038101906102559190611564565b610bb4565b005b6102766004803603810190610271919061106c565b610daa565b005b5f8181548110610286575f80fd5b905f5260205f20015f915054906101000a900473ffffffffffffffffffffffffffffffffffffffff1681565b5f600480549050905090565b6001602052805f5260405f205f915054906101000a900460ff1681565b5f8060605f805f600487815481106102f6576102f56115d0565b5b905f5260205f2090600502019050805f015f9054906101000a900473ffffffffffffffffffffffffffffffffffffffff1695508060010154945080600201805461033f9061162a565b80601f016020809104026020016040519081016040528092919081815260200182805461036b9061162a565b80156103b65780601f1061038d576101008083540402835291602001916103b6565b820191905f5260205f20905b81548152906001019060200180831161039957829003601f168201915b50505050509350806003015f9054906101000a900460ff169250806004015491505091939590929450565b60015f3373ffffffffffffffffffffffffffffffffffffffff1673ffffffffffffffffffffffffffffffffffffffff1681526020019081526020015f205f9054906101000a900460ff1661046a576040517f08c379a0000000000000000000000000000000000000000000000000000000008152600401610461906116b4565b60405180910390fd5b8060048054905081106104b2576040517f08c379a00000000000000000000000000000000000000000000000000000000081526004016104a99061171c565b60405180910390fd5b81600481815481106104c7576104c66115d0565b5b905f5260205f2090600502016003015f9054906101000a900460ff1615610523576040517f08c379a000000000000000000000000000000000000000000000000000000000815260040161051a90611784565b60405180910390fd5b5f60048481548110610538576105376115d0565b5b905f5260205f209060050201905060035f8581526020019081526020015f205f3373ffffffffffffffffffffffffffffffffffffffff1673ffffffffffffffffffffffffffffffffffffffff1681526020019081526020015f205f9054906101000a900460ff166105de576040517f08c379a00000000000000000000000000000000000000000000000000000000081526004016105d590611812565b60405180910390fd5b5f60035f8681526020019081526020015f205f3373ffffffffffffffffffffffffffffffffffffffff1673ffffffffffffffffffffffffffffffffffffffff1681526020019081526020015f205f6101000a81548160ff0219169083151502179055506001816004015f828254610655919061185d565b92505081905550833373ffffffffffffffffffffffffffffffffffffffff167ff0dca620e2e81f7841d07bcc105e1704fb01475b278a9d4c236e1c62945edd5560405160405180910390a350505050565b6003602052815f5260405f20602052805f5260405f205f915091509054906101000a900460ff1681565b600481815481106106df575f80fd5b905f5260205f2090600502015f91509050805f015f9054906101000a900473ffffffffffffffffffffffffffffffffffffffff16908060010154908060020180546107299061162a565b80601f01602080910402602001604051908101604052809291908181526020018280546107559061162a565b80156107a05780601f10610777576101008083540402835291602001916107a0565b820191905f5260205f20905b81548152906001019060200180831161078357829003601f168201915b505050505090806003015f9054906101000a900460ff16908060040154905085565b60025481565b60605f80548060200260200160405190810160405280929190818152602001828054801561084857602002820191905f5260205f20905b815f9054906101000a900473ffffffffffffffffffffffffffffffffffffffff1673ffffffffffffffffffffffffffffffffffffffff16815260200190600101908083116107ff575b5050505050905090565b60015f3373ffffffffffffffffffffffffffffffffffffffff1673ffffffffffffffffffffffffffffffffffffffff1681526020019081526020015f205f9054906101000a900460ff166108db576040517f08c379a00000000000000000000000000000000000000000000000000000000081526004016108d2906116b4565b60405180910390fd5b806004805490508110610923576040517f08c379a000000000000000000000000000000000000000000000000000000000815260040161091a9061171c565b60405180910390fd5b8160048181548110610938576109376115d0565b5b905f5260205f2090600502016003015f9054906101000a900460ff1615610994576040517f08c379a000000000000000000000000000000000000000000000000000000000815260040161098b90611784565b60405180910390fd5b8260035f8281526020019081526020015f205f3373ffffffffffffffffffffffffffffffffffffffff1673ffffffffffffffffffffffffffffffffffffffff1681526020019081526020015f205f9054906101000a900460ff1615610a2e576040517f08c379a0000000000000000000000000000000000000000000000000000000008152600401610a25906118da565b60405180910390fd5b5f60048581548110610a4357610a426115d0565b5b905f5260205f209060050201905060035f8681526020019081526020015f205f3373ffffffffffffffffffffffffffffffffffffffff1673ffffffffffffffffffffffffffffffffffffffff1681526020019081526020015f205f9054906101000a900460ff1615610aea576040517f08c379a0000000000000000000000000000000000000000000000000000000008152600401610ae190611942565b60405180910390fd5b600160035f8781526020019081526020015f205f3373ffffffffffffffffffffffffffffffffffffffff1673ffffffffffffffffffffffffffffffffffffffff1681526020019081526020015f205f6101000a81548160ff0219169083151502179055506001816004015f828254610b629190611960565b92505081905550843373ffffffffffffffffffffffffffffffffffffffff167f5cbe105e36805f7820e291f799d5794ff948af2a5f664e580382defb6339004160405160405180910390a35050505050565b60015f3373ffffffffffffffffffffffffffffffffffffffff1673ffffffffffffffffffffffffffffffffffffffff1681526020019081526020015f205f9054906101000a900460ff16610c3d576040517f08c379a0000000000000000000000000000000000000000000000000000000008152600401610c34906116b4565b60405180910390fd5b5f600480549050905060046040518060a001604052808673ffffffffffffffffffffffffffffffffffffffff1681526020018581526020018481526020015f151581526020015f815250908060018154018082558091505060019003905f5260205f2090600502015f909190919091505f820151815f015f6101000a81548173ffffffffffffffffffffffffffffffffffffffff021916908373ffffffffffffffffffffffffffffffffffffffff160217905550602082015181600101556040820151816002019081610d109190611b30565b506060820151816003015f6101000a81548160ff0219169083151502179055506080820151816004015550508373ffffffffffffffffffffffffffffffffffffffff16813373ffffffffffffffffffffffffffffffffffffffff167fd5a05bf70715ad82a09a756320284a1b54c9ff74cd0f8cce6219e79b563fe59d8686604051610d9c929190611bff565b60405180910390a450505050565b60015f3373ffffffffffffffffffffffffffffffffffffffff1673ffffffffffffffffffffffffffffffffffffffff1681526020019081526020015f205f9054906101000a900460ff16610e33576040517f08c379a0000000000000000000000000000000000000000000000000000000008152600401610e2a906116b4565b60405180910390fd5b806004805490508110610e7b576040517f08c379a0000000000000000000000000000000000000000000000000000000008152600401610e729061171c565b60405180910390fd5b8160048181548110610e9057610e8f6115d0565b5b905f5260205f2090600502016003015f9054906101000a900460ff1615610eec576040517f08c379a0000000000000000000000000000000000000000000000000000000008152600401610ee390611784565b60405180910390fd5b5f60048481548110610f0157610f006115d0565b5b905f5260205f209060050201905060025481600401541015610f58576040517f08c379a0000000000000000000000000000000000000000000000000000000008152600401610f4f90611c77565b60405180910390fd5b6001816003015f6101000a81548160ff021916908315150217905550805f015f9054906101000a900473ffffffffffffffffffffffffffffffffffffffff1673ffffffffffffffffffffffffffffffffffffffff166108fc826001015490811502906040515f60405180830381858888f19350505050158015610fdd573d5f803e3d5ffd5b50833373ffffffffffffffffffffffffffffffffffffffff167f5445f318f4f5fcfb66592e68e0cc5822aa15664039bd5f0ffde24c5a8142b1ac60405160405180910390a350505050565b5f604051905090565b5f80fd5b5f80fd5b5f819050919050565b61104b81611039565b8114611055575f80fd5b50565b5f8135905061106681611042565b92915050565b5f6020828403121561108157611080611031565b5b5f61108e84828501611058565b91505092915050565b5f73ffffffffffffffffffffffffffffffffffffffff82169050919050565b5f6110c082611097565b9050919050565b6110d0816110b6565b82525050565b5f6020820190506110e95f8301846110c7565b92915050565b6110f881611039565b82525050565b5f6020820190506111115f8301846110ef565b92915050565b611120816110b6565b811461112a575f80fd5b50565b5f8135905061113b81611117565b92915050565b5f6020828403121561115657611155611031565b5b5f6111638482850161112d565b91505092915050565b5f8115159050919050565b6111808161116c565b82525050565b5f6020820190506111995f830184611177565b92915050565b5f81519050919050565b5f82825260208201905092915050565b5f5b838110156111d65780820151818401526020810190506111bb565b5f8484015250505050565b5f601f19601f8301169050919050565b5f6111fb8261119f565b61120581856111a9565b93506112158185602086016111b9565b61121e816111e1565b840191505092915050565b5f60a08201905061123c5f8301886110c7565b61124960208301876110ef565b818103604083015261125b81866111f1565b905061126a6060830185611177565b61127760808301846110ef565b9695505050505050565b5f806040838503121561129757611296611031565b5b5f6112a485828601611058565b92505060206112b58582860161112d565b9150509250929050565b5f6112c982611097565b9050919050565b6112d9816112bf565b82525050565b5f60a0820190506112f25f8301886112d0565b6112ff60208301876110ef565b818103604083015261131181866111f1565b90506113206060830185611177565b61132d60808301846110ef565b9695505050505050565b5f81519050919050565b5f82825260208201905092915050565b5f819050602082019050919050565b611369816110b6565b82525050565b5f61137a8383611360565b60208301905092915050565b5f602082019050919050565b5f61139c82611337565b6113a68185611341565b93506113b183611351565b805f5b838110156113e15781516113c8888261136f565b97506113d383611386565b9250506001810190506113b4565b5085935050505092915050565b5f6020820190508181035f8301526114068184611392565b905092915050565b611417816112bf565b8114611421575f80fd5b50565b5f813590506114328161140e565b92915050565b5f80fd5b5f80fd5b7f4e487b71000000000000000000000000000000000000000000000000000000005f52604160045260245ffd5b611476826111e1565b810181811067ffffffffffffffff8211171561149557611494611440565b5b80604052505050565b5f6114a7611028565b90506114b3828261146d565b919050565b5f67ffffffffffffffff8211156114d2576114d1611440565b5b6114db826111e1565b9050602081019050919050565b828183375f83830152505050565b5f611508611503846114b8565b61149e565b9050828152602081018484840111156115245761152361143c565b5b61152f8482856114e8565b509392505050565b5f82601f83011261154b5761154a611438565b5b813561155b8482602086016114f6565b91505092915050565b5f805f6060848603121561157b5761157a611031565b5b5f61158886828701611424565b935050602061159986828701611058565b925050604084013567ffffffffffffffff8111156115ba576115b9611035565b5b6115c686828701611537565b9150509250925092565b7f4e487b71000000000000000000000000000000000000000000000000000000005f52603260045260245ffd5b7f4e487b71000000000000000000000000000000000000000000000000000000005f52602260045260245ffd5b5f600282049050600182168061164157607f821691505b602082108103611654576116536115fd565b5b50919050565b5f82825260208201905092915050565b7f6e6f74206f776e657200000000000000000000000000000000000000000000005f82015250565b5f61169e60098361165a565b91506116a98261166a565b602082019050919050565b5f6020820190508181035f8301526116cb81611692565b9050919050565b7f747820646f6573206e6f742065786973740000000000000000000000000000005f82015250565b5f61170660118361165a565b9150611711826116d2565b602082019050919050565b5f6020820190508181035f830152611733816116fa565b9050919050565b7f7472616e73616374696f6e20616c7265616479206578656375746564000000005f82015250565b5f61176e601c8361165a565b91506117798261173a565b602082019050919050565b5f6020820190508181035f83015261179b81611762565b9050919050565b7f53656e64657220686173206e6f7420636f6e6669726d656420746869732074725f8201527f616e73616374696f6e0000000000000000000000000000000000000000000000602082015250565b5f6117fc60298361165a565b9150611807826117a2565b604082019050919050565b5f6020820190508181035f830152611829816117f0565b9050919050565b7f4e487b71000000000000000000000000000000000000000000000000000000005f52601160045260245ffd5b5f61186782611039565b915061187283611039565b925082820390508181111561188a57611889611830565b5b92915050565b7f7472616e73616374696f6e20616c726561647920636f6e6669726d65640000005f82015250565b5f6118c4601d8361165a565b91506118cf82611890565b602082019050919050565b5f6020820190508181035f8301526118f1816118b8565b9050919050565b7f5472616e73616374696f6e20616c726561647920636f6e6669726d65640000005f82015250565b5f61192c601d8361165a565b9150611937826118f8565b602082019050919050565b5f6020820190508181035f83015261195981611920565b9050919050565b5f61196a82611039565b915061197583611039565b925082820190508082111561198d5761198c611830565b5b92915050565b5f819050815f5260205f209050919050565b5f6020601f8301049050919050565b5f82821b905092915050565b5f600883026119ef7fffffffffffffffffffffffffffffffffffffffffffffffffffffffffffffffff826119b4565b6119f986836119b4565b95508019841693508086168417925050509392505050565b5f819050919050565b5f611a34611a2f611a2a84611039565b611a11565b611039565b9050919050565b5f819050919050565b611a4d83611a1a565b611a61611a5982611a3b565b8484546119c0565b825550505050565b5f90565b611a75611a69565b611a80818484611a44565b505050565b5b81811015611aa357611a985f82611a6d565b600181019050611a86565b5050565b601f821115611ae857611ab981611993565b611ac2846119a5565b81016020851015611ad1578190505b611ae5611add856119a5565b830182611a85565b50505b505050565b5f82821c905092915050565b5f611b085f1984600802611aed565b1980831691505092915050565b5f611b208383611af9565b9150826002028217905092915050565b611b398261119f565b67ffffffffffffffff811115611b5257611b51611440565b5b611b5c825461162a565b611b67828285611aa7565b5f60209050601f831160018114611b98575f8415611b86578287015190505b611b908582611b15565b865550611bf7565b601f198416611ba686611993565b5f5b82811015611bcd57848901518255600182019150602085019450602081019050611ba8565b86831015611bea5784890151611be6601f891682611af9565b8355505b6001600288020188555050505b505050505050565b5f604082019050611c125f8301856110ef565b8181036020830152611c2481846111f1565b90509392505050565b7f63616e6e6f7420657865637574652074780000000000000000000000000000005f82015250565b5f611c6160118361165a565b9150611c6c82611c2d565b602082019050919050565b5f6020820190508181035f830152611c8e81611c55565b905091905056fea2646970667358221220e89a459c9a1b359275045114bf9fdbb71e386cd4c529f4dfac8b77a1d96e9f3564736f6c63430008140033",
  "immutableReferences": {},
  "source": "pragma solidity ^0.8.20;\n\n\ncontract MultiSigWallet {\n    // Events \n    event Deposit(address indexed sender, uint amount, uint balance);\n    event SubmitTransaction(\n        address indexed owner,\n        uint indexed txIndex,\n        address indexed to,\n        uint value,\n        bytes data\n    );\n    event ConfirmTransaction(address indexed owner, uint indexed txIndex);\n    event RevokeConfirmation(address indexed owner, uint indexed txIndex);\n    event ExecuteTransaction(address indexed owner, uint indexed txIndex);\n\n    address[] public owners;\n    mapping(address => bool) public isOwner;\n    uint public numConfirmationRequired;\n\n    struct Transaction {\n        address payable to;\n        uint value;\n        bytes data;\n        bool executed;\n        uint numConfirmations;\n    }\n\n    // Mapping to track confirmations for each transaction\n    mapping(uint => mapping(address => bool)) public isConfirmed;\n\n    Transaction[] public transactions;\n\n    // modifiers\n    modifier onlyOwner() {\n        require(isOwner[msg.sender], \"not owner\");\n        _;\n    }\n\n    modifier txExists(uint _txIndex) {\n        require(_txIndex < transactions.length, \"tx does not exist\");\n        _;\n    }\n\n    modifier notExecuted(uint _txIndex) {\n        require(!transactions[_txIndex].executed, \"transaction already executed\");\n        _;\n    }\n\n    modifier notConfirmed(uint _txIndex) {\n        require(!isConfirmed[_txIndex][msg.sender], \"transaction already confirmed\");\n        _;\n    }\n \n     constructor(address[] memory _owners, uint _numConfirmationRequired) payable {\n        require(_owners.length > 0, \"owners required\");\n        require(\n            _numConfirmationRequired > 0 && _numConfirmationRequired <= _owners.length,\n            \"invalid number of required confirmations\"\n        );\n\n        for (uint i = 0; i < _owners.length; i++) {\n            address owner = _owners[i];\n            require(owner != address(0), \"invalid owner\");\n            require(!isOwner[owner], \"owner not unique\");\n\n            isOwner[owner] = true;\n            owners.push(owner);\n        }\n\n        numConfirmationRequired = _numConfirmationRequired;\n    }\n\n    function submitTransaction(address payable _to, uint _value, bytes memory _data) \n        public\n        onlyOwner\n    {\n        // transactions are indexed based on the array of transactions\n        uint txIndex = transactions.length;\n        transactions.push(Transaction({\n            to: _to,\n            value: _value,\n            data: _data,\n            executed: false,\n            numConfirmations: 0\n        }));\n        \n        // emit the event SubmitTransaction\n        emit SubmitTransaction(msg.sender, txIndex, _to, _value, _data);\n    }\n\n\n    function confirmTransaction(uint _txIndex) \n        public \n        onlyOwner \n        txExists(_txIndex)\n        notExecuted(_txIndex)\n        notConfirmed(_txIndex)\n    {\n        Transaction storage transaction = transactions[_txIndex];\n        require(!isConfirmed[_txIndex][msg.sender], \"Transaction already confirmed\");\n        isConfirmed[_txIndex][msg.sender] = true;\n        transaction.numConfirmations += 1;\n\n        // emit the event ConfirmTransaction\n        emit ConfirmTransaction(msg.sender, _txIndex);\n        \n\n    }\n\n    function executeTransaction(uint _txIndex) \n        public \n        onlyOwner\n        txExists(_txIndex)\n        notExecuted(_txIndex)\n    {\n        Transaction storage transaction = transactions[_txIndex];\n        require(transaction.numConfirmations >= numConfirmationRequired, \"cannot execute tx\");\n\n        transaction.executed = true;\n\n        transaction.to.transfer(transaction.value);\n        emit ExecuteTransaction(msg.sender, _txIndex);\n    }\n\n    function revokeTransaction(uint _txIndex) \n        public\n        onlyOwner\n        txExists(_txIndex)\n        notExecuted(_txIndex)\n    {\n        Transaction storage transaction = transactions[_txIndex];\n        require(isConfirmed[_txIndex][msg.sender], \"Sender has not confirmed this transaction\");\n\n        isConfirmed[_txIndex][msg.sender] = false;\n        transaction.numConfirmations -= 1;\n\n        emit RevokeConfirmation(msg.sender, _txIndex);\n    }\n\n\n    //helpers\n    function getTransaction(uint _txIndex) \n        public\n        view\n        returns(address to, uint value, bytes memory data, bool executed, uint numConfirmations)\n    {\n        Transaction storage transaction = transactions[_txIndex];\n\n        to = transaction.to;\n        value = transaction.value;\n        data = transaction.data;\n        executed = transaction.executed;\n        numConfirmations = transaction.numConfirmations;\n    }\n\n    function getOwners() public view returns (address[] memory) {\n        return owners;\n    }\n\n    function getTransactionCount() public view returns (uint) {\n        return transactions.length;\n    }\n}",
  "sourcePath": "/Users/gulli/Documents/web3-dev/multiSigWallet-solidity/contracts/multisigwallet.sol",
  "compiler": {
    "name": "solc",
    "version": "0.8.20+commit.a1b79de6.Emscripten.clang"
  },
  "schemaVersion": "3.4.14",
  "updatedAt": "2023-07-22T12:42:05.979Z",
  "networkType": "ethereum",
  "devdoc": {
    "kind": "dev",
    "methods": {},
    "version": 1
  },
  "userdoc": {
    "kind": "user",
    "methods": {},
    "version": 1
  }
}